:020000040800F2
:101000000000012059F0010855F0010853F00108D3
:1010100053F0010853F0010853F0010800000000EC
:1010200000000000000000000000000055F0010872
:1010300055F001080000000055F0010855F00108C6
:1010400053F0010853F0010853F0010853F0010870
:1010500053F0010853F0010853F0010853F0010860
:1010600053F0010853F0010853F0010853F0010850
:10107000997F000853F0010853F0010853F001086C
:1010800053F0010853F0010853F00108952E0008B1
:10109000752E0008852E000853F0010853F0010852
:1010A00053F0010853F0010853F0010853F0010810
:1010B00053F0010853F00108E913000853F0010848
:1010C00053F0010853F0010853F0010853F00108F0
:1010D00053F0010853F0010853F0010853F00108E0
:1010E00053F0010853F0010853F0010853F00108D0
:1010F00053F0010853F0010853F0010853F00108C0
:1011000053F0010853F0010853F0010853F00108AF
:1011100053F0010853F0010853F0010853F001089F
:1011200053F0010853F0010853F0010853F001088F
:1011300053F0010853F0010853F00108C32E0008D2
:10114000A32E0008B32E000853F0010853F0010845
:1011500038B5504B998818681DF030FA1DF038FAF0
:101160004D4B186800F0B4FC1EF008FF4B491FF00F
:101170000DF80146352000F031FD01F0BBFB0146C2
:101180001D2000F01DFD022145481DF079FE01469D
:10119000282000F015FD434801F084FA014629207B
:1011A00000F00EFD404801F07DFA0146302000F0CD
:1011B00007FD05F061F905F0FBF805F0FBFA05F015
:1011C0008BFE022000F0DAFCE0B1012822D03420AE
:1011D00000F0D4FC1D2830DC411C342000F0F0FC71
:1011E000232000F0CBFC03283BDC1DF021FC2F4B1F
:1011F0001B68C01AB0F57A7F38D82D4B186801F0FB
:10120000F9FE38BD1E2000F0B3FC0146202000F09E
:10121000DFFCDCE7274801F045FA0546002000F036
:10122000B5FC044628461EF0A9FE21461EF0AEFF7E
:101230000146202000F0D2FCC9E7162000F09EFCF9
:10124000952804DD162000F099FCFA2803DD012022
:1012500001F02AFBC4E7172000F090FCEA28F6D141
:10126000BEE71DF0E5FB114B1860BEE72B2000F038
:1012700085FC04460A2000F081FC10F0040F02D027
:10128000B4F5FA6FB9DB0C4B998818681DF090F92A
:10129000B3E700BFC00B00204C0B00200000204132
:1012A000000400400C0C0020080C0020580B00200B
:1012B000440B0020F00B0020A00B002008B506F026
:1012C00081FF03F097FE03F06BFF06F0A3FB06F02F
:1012D000FBFC03F0F1FD05F03DF805F07BFE05F0A9
:1012E0007BFF1DF0A5FB01F0D9FA08BD00B583B066
:1012F00002238DF800300A4BD3F8E8278DF801203F
:10130000D3F8F037CDF8023006236A4605490420A9
:1013100006F07EFD684606F04DFD03B05DF804FB67
:1013200000F0FF1F6005020870B51A2000F026FCCF
:10133000054600EB800202EB8202134C1444192094
:1013400000F01CFC10F0080F00D170BD1DF070FB08
:101350000E4B1B68C01A632803D80D4B1B68AB42A9
:10136000F3D01DF065FB094B186000F049FA064602
:1013700003F064FC034622463146064801F0A2F819
:10138000034B1D60E1E700BF60230208500B002003
:10139000540B002074050208FEE7000038B50C2845
:1013A00004D0112817D00B280BD038BD0C4B1C686B
:1013B00023681D680C2000F0E1FBC1B22046A8475D
:1013C000F3E7084B1C680B2000F0D8FBC1B22046A5
:1013D00002F01EFBE9E70021342000F0F1FBE4E716
:1013E000400B0020480B002008B5024B186800F0A5
:1013F00037FB08BD4C0B002080B5ADF5FF6D00F04C
:101400003DF900F0F3F9794E00223146784801F0B9
:101410008DF9784C02222146774801F087F9774D03
:1014200000222946764801F081F9012229467548B3
:1014300001F07CF902222946734801F077F9032272
:101440002946724801F072F904222946704801F0D9
:101450006DF9052229466F4801F068F903223146EB
:101460006D4801F063F90423102231466B4800F007
:1014700038FE042380222146694800F032FE04230E
:1014800010222146674800F02CFE04231A4621460C
:10149000654800F026FE04234FF48062214663482D
:1014A00000F01FFE04234FF400622146604800F064
:1014B00018FE0423022231465E4800F012FE042387
:1014C000012221465C4800F00CFE5C4D0423022200
:1014D0002146284600F005FE01F070F800F01CF9E6
:1014E0004FF470614FF000701DF056F8A98828681D
:1014F0001DF05CF805F082FB05F0DEFD2F2000F00A
:101500003DFB00F085F900F061F901F098F906F073
:1015100061FD0DF5FA644A49204600F049FA494B4D
:101520001C600C2000F02AFB0DF274550023C2B29F
:101530004549284601F0E6FBADAF2946384602F0A2
:10154000F9F98DAE3A462946304602F03BFA0B20B7
:1015500000F014FBC1B2304602F05AFA3B4B1D605A
:101560003B4D2F603B4B1E6000233B4A3B4902A88A
:1015700000F0DAFB2A683A4B1A600E211C2000F0BA
:101580001FFB3849384800F09DFF1C2000F0F6FA98
:101590000146364800F096FF192000F0EFFA0146A8
:1015A000334800F08FFFFFF7A1FE1E22314920468D
:1015B00000F020FA64223049204600F01BFA042192
:1015C0001B2000F0FDFA3620FFF7E8FE04E00DF1E5
:1015D00007018EA802F042FD00238DF80730929B90
:1015E000002BF4D0FFF7A0FEF6E700BF0008014093
:1015F000EC0B0020000C0140000C0020001001400A
:10160000F40B0020F80B0020FC0B0020F00B002056
:10161000040C00200C0C0020080C0020B80B00204B
:10162000C00B0020980B0020C80B0020D80B002016
:10163000D00B0020B00B0020A80B0020A00B002036
:10164000000800404C0B002000640040400B0020CC
:10165000440B0020480B0020640C0208004C0040A2
:101660000C0D002098050208A4050208C005020818
:10167000D8050208BD1200085111000808B5244819
:101680001DF0F4F84FF0E023224AC3F80C2D40F28D
:1016900002301DF049F940F203301DF045F94FF4D6
:1016A00041701DF041F940F205301DF03DF940F266
:1016B00093301DF039F940F20B301DF035F94FF43D
:1016C00060701DF031F940F281301DF02DF940F2CB
:1016D00082301DF029F94FF420701DF025F940F2F9
:1016E00081201DF021F940F209301DF01DF940F272
:1016F00086201DF019F94FF440701DF015F940F2E5
:1017000099301DF011F94FF443701DF00DF908BD2B
:101710002C2C02080003FA0530B597B01CF0C4FD6C
:10172000264D0544AD021422002101A800F0D3FC8F
:10173000234901911123ADF8083001238DF80A30B7
:1017400000228DF80B2003910221ADF810108DF8C6
:1017500012308DF813301B4805904FF47070ADF8BF
:1017600018008DF81A308DF81B2017480790ADF837
:1017700020108DF822308DF823201CF079FD1421E3
:1017800001A81CF083FD15902B6D834201D117B089
:1017900030BD1CF0ABFE28461CF064FE002407E0C0
:1017A00001AB53F8241005EB84001CF0B9FE0134A2
:1017B000142CF5D91CF0A6FEE9E700BFFDFF41009F
:1017C000000C0140001001400008014008B51E2037
:1017D0001DF094FCE0211E201DF09EFC0C201DF04D
:1017E0008DFCD0210C201DF097FC08BD08B54FF4EE
:1017F0001C7103201DF054F900201DF023F908BDD1
:1018000008B51DF015F900EB8000400008BD000090
:1018100038B540F6A373984200F3C2802225614C8C
:1018200020461DF0BFF9002120461DF0A7F92046F3
:101830001DF09FF90622002120461DF0BCF906226A
:10184000022120461DF0B7F90622042120461DF092
:10185000B2F90622114620461DF0ADF900212046BE
:101860001DF06FFA022120461DF06BFA042120467C
:101870001DF067FA062120461DF063FA002120467C
:101880001DF079FA022120461DF075FA0421204648
:101890001DF071FA062120461DF06DFA0021204648
:1018A0001DF0B3FA022120461DF0AFFA04212046B4
:1018B0001DF0ABFA062120461DF0A7FA01212046B3
:1018C0001DF0D8FA294620461DF071F94FF48051D9
:1018D00020461DF06EF920461DF05FF947214FF0BC
:1018E00080401DF064F94FF6FF714FF080401DF00D
:1018F00060F94FF080401DF04BF904214FF080401B
:101900001DF036FB01214FF080401DF028FB5021D7
:101910004FF080401DF034FB0F2200214FF080403B
:101920001DF0BDFA0F2201214FF080401DF0B7FAE3
:10193000012200214FF080401DF0D9FA012211460A
:101940004FF080401DF0D3FA00214FF080401DF091
:1019500012FA02214FF080401DF032FA00214FF0C0
:1019600080401DF0F5FA01214FF080401DF0F0FAA3
:1019700001214FF080401DF07DFA4FF080401DF0B6
:101980000CF94FF470730222032107481CF0D4FDB8
:101990004FF400430122002104481CF0CDFD38BD66
:1019A00000253CE700040040001001400008014011
:1019B00038B505460C46016208461DF0DAF82046A7
:1019C0001DF0E6F8094B19684909094BA3FB0131E1
:1019D000C909013920461DF0EAF84FF6FF7120468B
:1019E0001DF0E7F800236B62284638BD0807002089
:1019F000C55A7C0AF8B5436A032B00DDF8BD0446DE
:101A00000E461546006A1DF0CDF8636A134F012299
:101A1000F95C206A1DF0CFF8636A0022F95C206A45
:101A20001DF018FA636A44F8236003F1080105EB1E
:101A3000850202EB8202920024F8112002219940D3
:101A4000206A1DF089F80021206A1DF026FA206A1C
:101A50001DF0A3F8636A01336362CFE7E80502086B
:101A6000F8B50546002424E00226A6403146286A3F
:101A70001DF076F810B3286A1DF000FA87B22B6AC1
:101A800003EB840304F1080235F812105A6B0A4480
:101A90005A6355F824309847286A1DF0EFF9C01BA7
:101AA00004F10C0325F813003146286A1DF05EF896
:101AB0000134032C0BDC6B6AA342D5DC6B6AA342B6
:101AC000F6DC0221A140286A1DF050F8F0E7F8BDCD
:101AD0000146002210460FE002F10C0331F81330EA
:101AE0004FF47A7C0CFB03F302F1080C31F81CC0B4
:101AF00093FBFCF3184401324B6A9342ECDC7047D1
:101B0000012800D070474FF6FF739942FAD1054B78
:101B1000054A1268C3F8E022044A1268C3F8342365
:101B2000F0E700BFD8000020F0060020E00600200B
:101B300008B5C0EBC0020C4B03EB8203DB688B42A1
:101B40000FDC1346084A02EB83031B698B4201DA60
:101B5000FF2007E0054B43F82010FFF71FFC002093
:101B600000E0FF2008BD00BFD800002000000020DA
:101B7000014B53F82000704700000020024B53F83F
:101B800020004011704700BF0000002008B5054B41
:101B900053F820001EF0F2F94FF074511EF042FA93
:101BA00008BD00BF00000020044B53F82000401186
:101BB000012814BF00200120704700BF0000002052
:101BC0004901024B43F82010704700BF000000207D
:101BD000014B43F8201070470000002010B5044668
:101BE00008464FF084411EF01DFA1EF0F7FB024B31
:101BF00043F8240010BD00BF0000002070B5064669
:101C00000024074D352C09DC3146686800F0CCF91A
:101C100010B101341C35F5E7E0B270BD3720FCE7A8
:101C2000D80000200023064A352B07DC118B8142A7
:101C300002D001331C32F7E7D8B270473720704723
:101C4000D8000020C0EBC000014B03EB80007047C0
:101C5000D800002038B50024074D01E001341C35C0
:101C6000352C07DC2B8B002BF8D06969E0B2FFF72D
:101C7000AFFFF3E738BD00BFD8000020014B195477
:101C8000704700BF5C0B0020024B1A5C11431954D3
:101C9000704700BF5C0B0020024A135C23EA01037B
:101CA000135470475C0B0020014B185C704700BF59
:101CB0005C0B0020C0EBC000024B03EB8000807E79
:101CC000704700BFD80000204DF61A60704708B575
:101CD0004FF6FF710120FFF713FF08BD08B5202163
:101CE00080681DF0B0F908BD08B580681DF0A3F943
:101CF00008BD10B504464368597A58681CF04FFB7C
:101D0000636804F12902597A58681CF05AFB636829
:101D10008022597A58681CF05DFB6368597A5868CC
:101D20001CF034FB10BD000070B504460D464F4951
:101D300001604F49016085600373026101210175F3
:101D40004175817500228261C26180F82020426263
:101D500080F8281047494160032A07D8616808685D
:101D6000A84203D01C3161600132F5E7424A146099
:101D7000002B74D062685069002B73D063681B8B92
:101D8000022203211CF0D8FB4FF4612128461DF0EC
:101D9000FFF8082128461DF00FF94FF4005128469E
:101DA0001DF013F90C2128461DF01BF900212846CF
:101DB0001DF011F9002128461DF019F928461DF0E3
:101DC0002CF928461DF02EF96368197A58681CF022
:101DD00071FA6368197A58681CF0BDFA63682E1DA1
:101DE0003246197A58681CF0E3FA63680022197ABF
:101DF00058681CF08DFA63680022197A58681CF044
:101E00007AFA6368197A58681CF08FFA6368597A0D
:101E100058681CF04FFA63683246597A58681CF0CB
:101E2000C7FA63680022597A58681CF071FA63682F
:101E30000022597A58681CF05EFA6368597A58682B
:101E40001CF073FA6368597A58681CF09FFA2046B0
:101E5000FFF74FFF28461DF0D0F8204670BD62689E
:101E6000D06889E763681B8A8AE700BF640B0208B1
:101E7000E00B0208680B0208940B002038B50446FA
:101E80000D4663680222197A58681CF02AFA18B9BC
:101E900094F82830002BF4D06368197A58681CF045
:101EA0007EFA6368AAB2197A58681CF093FA6368DC
:101EB00094F82020D201A83222440132197A5868BD
:101EC0001CF07FFA63680222197A58681CF003FA42
:101ED0006368197A58681CF059FA94F82030B3FAFC
:101EE00083F35B0984F82030002384F8283038BD60
:101EF00010B50446837D73B10A2910D0436A7F2B45
:101F00000DD090F8202000EBC2121A4482F8A910DC
:101F10000133436210BD80681DF074F8FAE794F84D
:101F20002030626A04EBC313134483F8A910511CD8
:101F30002046FFF7A3FF00236362EBE708B5044BDD
:101F40001B681A681268C1B21846904708BD00BFE6
:101F5000940B0020704708B500F0E8FC08BD0000B5
:101F600000B583B00649D1F8F027D1F8EC37D1F8A5
:101F7000E8170091034900F0D7FA03B05DF804FBBD
:101F800000F0FF1FE40B020810B50446FFF762FEE5
:101F90000249204600F0C8FA10BD00BFF80B020845
:101FA00008B502F05BF808BD431E013913F8010FB4
:101FB00011F8012F10B10AB19042F7D0801A18BF62
:101FC00001207047034600201A5C02B970470130B7
:101FD000FAE70346184613F8012B0AB18A42F9D1F1
:101FE000704700290346F0B520DA2D2003F8010BD5
:101FF000012049421D46C71A91FBF2FC02FB1C114D
:10200000303129702C46BCF1000105F101051E4656
:1020100005EB0700F0DC00232B70B4420BD93378BA
:10202000227806F8012B04F80139F6E704D13022B2
:10203000417002700120F0BD0020DBE730B503786D
:102040002D2B11D14FF0FF34013000210A25431E02
:1020500001E005FB012113F8012F303AD0B2092825
:10206000F7D904FB01F030BD0124EEE710B5134CA5
:1020700002780146A2F10A03DBB2162B00F101003F
:1020800017D9A2B10846FFF79DFF0C4C0138084450
:102090008142024609D2137801380A3BDBB2162B83
:1020A00003D824FA03F3DB07F2D400235370084665
:1020B00010BD24FA03F3DA07DAD4E3E7090040009D
:1020C000002310B5934200D110BD51F8234040F8D1
:1020D00023400133F6E7013A00D2704740F8041B71
:1020E000F9E7F8B50C46154601608280013B052BE7
:1020F00004D8DFE803F01B070B0F13170023022798
:102100001E4616E0002301271E4612E000231F464C
:102110001E460EE000231F4603260AE001231F4649
:10212000032606E000230227032602E001230227FC
:10213000002633B92B463A46314620461CF0FCF9BE
:10214000F8BD294620461CF031FAF3E770B50C1EA5
:10215000B4BF4FF0FF3301235C430133064608BF91
:102160002D234FF0640208BF06F8013B611104F013
:102170001F040546544330460A22FFF732FF2E2241
:102180006411092C3254D8BF302206EB0003D8BFAB
:102190005A7021464FF00A02CCBF581C981CFFF71A
:1021A00020FF284670BDF0B503782D2B17D14FF0D6
:1021B000FF36013000244FF00A0C02E018460CFBF9
:1021C0000454034613F8012BA2F13005EFB2092F96
:1021D000F4D9AAB98C40224406FB02F0F0BD0126D6
:1021E000E8E78B4003EB650393FBF5F30CFB05F588
:1021F0001A4410F8013F303BDFB2092FF1D9E9E76B
:102200000A250022AC46F4E743685A1C4260197064
:1022100070472DE9F04105460F46161E12DD0A46AD
:10222000002101E00131013210780028FAD1B142D9
:1022300006DA761A13F0020F13D14FF0200803E0EC
:102240000026F7E74FF0200813F001040CD1002E10
:1022500012DD2B681B684146284698470134013E31
:10226000F5E74FF03008EFE7002405E02B681B6826
:10227000284698470134013739780029F6D106E01D
:102280002B681B684146284698470134013E002EC2
:10229000F6DC2046BDE8F0812DE9F04184B0074628
:1022A000DDF828800C9859B11E460C4613B10A2A55
:1022B00013D0002600238DF80D300DF10D0518E028
:1022C00030238DF8003000238DF801300B9B4246FF
:1022D00069463846FFF79DFF32E0002901DB002602
:1022E000E8E74C420126E5E7303105F8011DB4FB73
:1022F000F2F44CB1B4FBF2F102FB11410929F3DD18
:10230000A0F13A031944EFE79EB1B8F1000F0BD0EA
:102310000B9B13F0020F07D03B681B682D2138463A
:10232000984708F1FF3804E02D2305F8013C013DF2
:1023300000260B9B424629463846FFF76AFF304489
:1023400004B0BDE8F08108B50846FFF7F7FD08BD09
:1023500070B584B0044615461E466846FFF7F6FE83
:1023600033462A4669462046FFF753FF04B070BD46
:1023700070B588B006460C460592002587E0A21C81
:10238000012391E000222178A1F1300C5FFA8CFC4E
:10239000BCF1090F06D802EB8202303901EB420290
:1023A0000134F0E773291AD0642923D0782930D07A
:1023B00058293DD075294AD0662957D0632965D15F
:1023C0000599081D059009688DF81C1000218DF8ED
:1023D0001D1007A93046FFF71CFF054456E005997C
:1023E000081D0590096801B935493046FFF711FF0E
:1023F00005444BE00599081D05900968612002908D
:102400000193009201230A223046FFF745FF05445D
:102410003CE00599081D0590096861200290019330
:102420000092002310223046FFF736FF05442DE0CE
:102430000599081D059009684120029001930092BA
:10244000002310223046FFF727FF05441EE00599C0
:10245000081D0590096861200290019300920023F5
:102460000A223046FFF718FF05440FE00599081DC2
:10247000059009683046FFF76BFF054406E01446F7
:1024800033681B682178304698470135013423783A
:102490009BB1252BF4D1621C637873B1252BEED050
:1024A0002D2B3FF46CAF002314462278302A7FF4A2
:1024B00069AF013443F00203F7E7284608B070BD66
:1024C000D40C02080FB400B583B004AA52F8041B60
:1024D000054B0193009201A8FFF74AFF03B05DF896
:1024E00004EB04B0704700BFE40C02080EB400B562
:1024F00084B005AA52F8041B094B0293094B0293BE
:102500000390019202A8FFF733FF039B5A1C03922A
:1025100000221A7004B05DF804EB03B0704700BFEE
:10252000640B0208F00C02080EB400B582B003AAD6
:1025300052F8041B0192FFF71BFF02B05DF804EB99
:1025400003B07047012800D070474FF6FF739942DF
:10255000FAD1104B104A1360991C104A1160191DD2
:102560000F4A1160991D0F4A116003F108010E4ACC
:10257000116003F10A010D4A116003F10C010C4ACC
:10258000116003F10E010B4A116010330A4A136007
:10259000DAE700BF100C0020EC0B0020000C00203C
:1025A000F40B0020F80B0020FC0B0020F00B0020A7
:1025B000040C00200C0C0020080C002038B52A4C1C
:1025C00020461BF0E6FB20461BF0E8FB20461BF0F4
:1025D00005FC20461BF0E7FB012120461BF0C4FB55
:1025E00020461BF065FB002300E001331F4A9342A5
:1025F000FBDD1D4D28461BF07FFB28461BF08FFBA3
:102600001B4A092128461BF0EEFB28461BF037FC2D
:10261000184C194A012120461BF0CAFE174A012115
:1026200020461BF0CEFE4FF48072012120461BF0A5
:102630006FFE4FF48062012120461BF05CFE6C228D
:10264000012120461BF0C6FE012120461BF06DFE35
:10265000012120461BF072FE012120461BF096FE50
:1026600028461BF02DFB38BD002401407F380100B7
:10267000E00B0020000002404C240140100C002020
:10268000884205DD914209DC90420ADD1046704720
:10269000904206DC914203DD1046704708467047C1
:1026A0000846704730B583B0046800250BE0A28C63
:1026B000618A2088FFF7E4FF02AB03EB450323F8B0
:1026C000080C01353634032DF1DDBDF80000BDF8EE
:1026D00002301844BDF804301844BDF806301844E0
:1026E000C0F38F0003B030BD08B50F4B98420FD038
:1026F00003F58063984211D0A3F50063984203D09C
:102700001BF0E6FA102008BD0729F9DCC8B2FAE789
:102710000129F5DCC9B20831C8B2F4E70529EFDCBC
:10272000C9B20A31C8B2EEE7000C014070B50446E8
:102730000D461646012393409BB2002211462846BF
:102740001BF0FAFE2468054BE41A64103146284653
:10275000FFF7CAFFA4B2024B185570BD100C002041
:10276000E00B002008B54FF6FF710120FFF7EAFEED
:1027700008BD000008B51BF097FD024B034498020A
:1027800008BD00BFFFFF41002DE9F043ADF2044D4D
:10279000FFF7F0FF0746024600234FF0FF3503E046
:1027A00052F8041B0D400133FF2BF9DD1BF060FDD7
:1027B0004FF480724FF0FF316846FFF78CFC002425
:1027C00000E00134352C1AD8E6B23046FFF772FA31
:1027D0000028F6D13046FFF735FA80463046FFF73D
:1027E00063FA0DEBC40989F80300B8F818302DF826
:1027F00034303046FFF7BCF9C9F80400E1E7FE21A8
:1028000068461BF043FDFE901BF070FEB5F1FF3FE4
:1028100001D100240AE038461BF024FEF9E75DF8F8
:10282000241007EB84001BF07BFE0134FF2CF6D94B
:102830001BF068FEFE980DF2044DBDE8F083F8B57C
:10284000FFF798FF06461BF013FDFE2130461BF0F4
:102850001DFDD6F8F83383421AD1002500E001357A
:102860007E2D18D836F83500FFF7DCF904463728F6
:10287000F5D0FFF71FFA0028F1D106EBC5077968FC
:102880002046FFF7A5F9F9782046FFF7F7F9E6E7C4
:102890004FF0FF3000E00020F8BD0000014B186051
:1028A000704700BFF40C00200D4B1B5CB3B90D4BFF
:1028B000196899B110B40C4B18700C4C23680C4A71
:1028C00002F8330002EBC3025160054A01211154A2
:1028D0000B4403F00303236010BC7047704700BF34
:1028E000EC0C0020F40C0020F80C0020E80C002078
:1028F000C0060020014B1878704700BFF80C00207C
:1029000008B5074B03EBC10292F804C053F831300D
:10291000044A52F82C2001460348FFF7D3FD08BDB6
:10292000D00D0208080E0208F40C020810B50B4B7B
:102930005B6873B10024032C0ED8084B03EBC4036F
:10294000586848B1054B13F83410FFF7D9FF01342C
:10295000F1E70348FFF7B6FD10BD00BFC006002039
:10296000040D020810B58AB00F4B01EB410203EBD6
:10297000820453F82220646801EB410103EB8101DA
:102980008B68D0F8580200210891079106930594AE
:10299000049203910291019100910B4601221BF0D8
:1029A0007FFA0AB010BD00BF1C0E0208F0B583B05C
:1029B00004460D4616461F460121D0F858021BF06A
:1029C00084FB019600970023B5F5006F34BF002209
:1029D00001222946D4F858021BF07CFB002805DBB5
:1029E000D4F85432002B17DC03B0F0BDD4F85432C5
:1029F000132BF5DC03F1110204EB02125560976012
:102A0000316804EB0312C2F81C117168C2F820117E
:102A10000133C4F85432E3E70121D4F858021BF023
:102A200050FBE1E7012801DD00207047014B53F81E
:102A300020007047FC0C002030B58BB004460D46DA
:102A40000AE09DF8213006AA0999204600F0A2FA72
:102A50001BF0EEFFC4F8F8000023059306AB0493C7
:102A60000DF12103039308AB02930DF122030193AF
:102A70000DF12303009309AB0122E9B2D4F8580207
:102A80001BF09FFB0028DCD10BB030BD30B583B00C
:102A9000044600F58A7504E0D4F85432013BC4F8CA
:102AA0005432D4F85432002B17DD03F18053013B2C
:102AB0001A0105EB0313A95803F1080201921B79CF
:102AC00000930023B1F5006F34BF00220122D4F837
:102AD00058021BF0FFFA0028DEDAD4F854320BB1AA
:102AE00003B030BD0121D4F858021BF0EEFAF7E72D
:102AF000F0B585B00E4615461C461068B3F800C008
:102B00005A889B88E7885B019BB2520192B24FEAD8
:102B10004C1C1FFA8CF14FF0010CCDF808C000EAF4
:102B20000C0CCDF804C07F01BFB200971BF0ACFACB
:102B3000002333602A6801322A60E380A380638027
:102B4000238005B0F0BDF0B585B00F4615461C4694
:102B50001068B3F800C05A889B88E6885B019BB276
:102B6000520192B24FEA4C1C1FFA8CF14FF0010C4B
:102B7000CDF808C000EA0C0CCDF804C07601B6B25E
:102B800000961BF071FA00233B602A6801322A602C
:102B9000A380238040F2FF73E380638005B0F0BD23
:102BA00070B582B00E4615461C4610681968C900FB
:102BB0005A68D20001230093034042F0040241F01E
:102BC00004011BF071FA002333602A6801322A6085
:102BD0006360236002B070BD30B58BB00546002342
:102BE00008930993454906AA03C982E803000493A0
:102BF0000593039302930193D5F85822404B9A42D0
:102C00000AD0A3F58063D3F8003AC3F305230093F9
:102C10000024C2F81C4220E00023F8E704F11E0261
:102C200005EB8202516859B30298421C02920DF1E1
:102C3000280C0CEB400020F8103C531C02930CEBCA
:102C4000420222F8101C039B042B22D0029B022B71
:102C500026D0019B022B2AD00134D5F8F430A342B0
:102C60002CDD05EB84035B68B3F5006FD6D3019AC6
:102C70000AA901EB820141F8183C01320192E2E716
:102C8000039A0AA901EB420121F8083C01320392A0
:102C9000D9E708AB6A4603A92846FFF729FFD5E71D
:102CA00006AB6A4602A92846FFF74DFFD1E704AB01
:102CB0006A4601A92846FFF773FFCDE7039B002B67
:102CC00007DC029B002B0BDC019B002B0FDC0BB005
:102CD00030BD08AB6A4603A92846FFF709FFF0E7B5
:102CE00006AB6A4601A92846FFF72DFFECE704ABC7
:102CF0006A4601A92846FFF753FFE8E7140E0208C9
:102D000000640040F8B504460D4616461F4600F024
:102D1000E3F8534B23600023C4F85432C4F85852EC
:102D2000504B9D421AD003F580639D4258D0D4F891
:102D300058021BF0A9F831462046FFF713FE204643
:102D4000FFF74AFF0221D4F858021BF0BAF910210C
:102D5000D4F858021BF0B5F92046F8BD5FB3424DD8
:102D60004FF480730222002128461BF0E5FB4FF44C
:102D7000807128461BF01AFC4FF4007302220321D5
:102D800028461BF0D9FB14201CF0B8F9F0211420C0
:102D90001CF0C2F915201CF0B1F9F02115201CF02F
:102DA000BBF913201CF0AAF9F02113201CF0B4F990
:102DB0002E4B1C60BBE72E4D4FF400630222002116
:102DC00028461BF0B9FB4FF4006128461BF0EEFBD0
:102DD0004FF480530222032128461BF0ADFBD2E7BB
:102DE00047B3214D20230222002128461BF0A4FBDB
:102DF000202128461BF0DAFB40230222032128462B
:102E00001BF09AFB40201CF079F9F02140201CF0C7
:102E100083F941201CF072F9F02141201CF07CF96B
:102E20003F201CF06BF9F0213F201CF075F90F4B8F
:102E30005C607CE70C4D4FF4805302220021284651
:102E40001BF07AFB4FF4805128461BF0AFFB4FF488
:102E500000530222032128461BF06EFBD2E700BF7D
:102E6000600E020800640040000C0140FC0C0020D1
:102E70000008014008B50020FFF7D4FD0021FFF74E
:102E8000DBFD08BD08B50020FFF7CCFD0121FFF7F1
:102E9000D3FD08BD08B50020FFF7C4FDFFF7F6FD20
:102EA00008BD08B50120FFF7BDFD0021FFF7C4FDF7
:102EB00008BD08B50120FFF7B5FD0121FFF7BCFDF6
:102EC00008BD08B50120FFF7ADFDFFF7DFFD08BD28
:102ED0000020704770470000084B03600023C0F8D3
:102EE000F430C0F8FC3005E003F14002044940F83A
:102EF00022100133042BF7DD704700BF740E020867
:102F0000E4060020D0F8FC30042B01DD00207047DF
:102F100003F1400240F822100133C0F8FC300120D8
:102F2000704738B5D0F8F4501D2D1BDC002300E0AD
:102F300001339D4206DD00EB830464688C42F7D1C7
:102F4000002010E000EB8503596005F11E0300EB43
:102F500083035A600135C0F8F45003689B689847B2
:102F6000012000E0002038BD38B505460024C0F837
:102F7000F44003689B68984707E004F1400355F864
:102F8000230003685B6898470134D5F8FC30A342FE
:102F9000F3DC38BD2DE9F8430546884617461E4642
:102FA000002400E00134D5F8FC00A0420CDD04F15F
:102FB000400355F823000368D3F8009033463A469F
:102FC0004146C8470028EDD0BDE8F88370B50546F6
:102FD00000F13006344605E0002234F8041B68682E
:102FE000FFF79FFFA31B242B02DCA378322BF3D126
:102FF00070BD00002DE9F04182B0054600F10807E0
:103000003E46F31B242B45DCB378322B42D0002301
:1030100000930193B37803EB4304A40058342C4489
:1030200009E08340009A13430093647A04EB44045C
:10303000A40058342C44637AFF2B22D0174B1B7802
:1030400043BB2079FEF7A2FD014620681CF0EAFF91
:10305000804694F906001CF091FF41461CF0DAFE10
:103060001DF0BCF994F9082001239340013B034073
:10307000E0791F28D5D920388340019A1343019362
:10308000D3E7686803685C6808236A4636F8041B5F
:10309000A047B6E702B0BDE8F08100BF040D0020F4
:1030A00010B501B302F10C0E00EB8E0E0A2A41D8C6
:1030B0009EF8021032293FD001EB410C4FEA8C0CF4
:1030C0000CF1580C844400249CF80910FF2935D0D9
:1030D00073B1013BDBB201EB410189005831644619
:1030E00000EB010CF0E702F1020E00EB8E0EDDE7C3
:1030F00014B1617201201EE0322902D08EF8021054
:10310000F8E79918092907DC0EEB83018978322941
:1031100002D00133DBB2F4E7013BDBB20EEB8302FA
:1031200091788EF802103EF82330AEF8003032234A
:103130009370DFE7002010BD0020FCE70020FAE7D5
:103140002DE9F04100F1080600231A461F461D46EE
:1031500057BB34460022A4EB060CBCF1240F2BDC39
:1031600094F802C0BCF1320F26D00CEB4C0C4FEAA5
:103170008C0C0CF1580C00EB0C0E002309E0013311
:10318000DBB20CEB4C0C4FEA8C0C0CF1580C00EB46
:103190000C0E9EF809C0BCF1FF0F09D0BEF80480E8
:1031A0001FFA81FEF045EAD15FB10020BDE8F08151
:1031B0000132D2B20434CEE700F130062F460125A9
:1031C000C6E72946FFF76CFFF0E72DE9F041DDF88F
:1031D0002480002488F8004000F10807002C3FD12B
:1031E0003E46F41B242C33DCB478322C30D004EB74
:1031F000440C4FEA8C0C0CF1580C00EB0C0E07E061
:103200000CEB4C0C4FEA8C0C0CF1580C00EB0C0E38
:103210009EF809C0BCF1FF0F18D0BEF804508CB264
:10322000A542EDD1318811609EF807201A709EF9F1
:103230000820069B1A70DEF80020079B1A609EF992
:103240000620089B1A700120BDE8F0810436C8E70B
:1032500098F80040012588F8005000F13007BDE7DC
:103260000020F1E78446D9B102F10C0100EB8101A5
:103270000A2A1DD88A78322A1CD002EB4202920018
:1032800058320CEB0200427AFF2A15D063B1013BA1
:10329000DBB202EB4202920058320CEB0200F2E782
:1032A000911C00EB8101E3E70A88009B1A607047DC
:1032B0000020704700207047002070472DE9F04340
:1032C00085B00646884600F1080900273B4626E0FF
:1032D000029794F9063001932368009394F908301B
:1032E000E27929882079C047647A04EB4404A40079
:1032F00058343444637AFF2BEAD10435A5EB090333
:10330000242B08DCAB78322B05D003EB4304A4005C
:1033100058343444EEE706F130093B4601270BB937
:103320004D46EBE705B0BDE8F0830023092B07DC31
:1033300001EB83024FF0320C82F802C00133F5E753
:10334000002307E003EB430200EB8202FF2182F837
:1033500061100133322BF5DD704710B5044600F1E2
:103360000801FFF7E2FF04F130012046FFF7DDFF1F
:103370006068FFF7F9FD10BD2DE9F041884615465C
:103380001F46002426460AE028681AF079FF064600
:1033900055F8041B08EB84001BF0C2F80134BC4252
:1033A000F2DB3046BDE8F081084600E00430431A05
:1033B000242B06DC8378322B05D003889342F5D189
:1033C00002E0002070470020704700002DE9F04126
:1033D0004F4B1B781BB100242046BDE8F081054609
:1033E000164603F0FF040A4600F13001FFF7DCFF48
:1033F0000028F1D0837803EB4304A40058342C4414
:103400003FE01F2B53D83768C7F307213A0642EA3B
:103410000142C7F3074142EA012242EA1762C3F1BF
:103420001F03DBB222FA03F318401CF0A3FD07468A
:1034300094F906001CF0A2FD39461CF0EBFC014695
:1034400020681CF0EFFD07462079FEF733FC20B121
:103450002079FEF72FFC012853D1B4F804804FF0F7
:10346000844138461CF0DEFD1CF0B8FF01465FFACF
:1034700088F0FEF75DFB647A04EB4404A400583442
:103480002C44637AFF2B41D0E37994F9082082EA37
:10349000E271A1EBE271C9B2012088400138002A33
:1034A000AFDB1F2B1ED97268203BDBB2BAE71A4490
:1034B0001F2A03DD7768203BDBB2A5E7A3EB010CF5
:1034C0005FFA8CFC0CF1010C5FFA8CFC326822FA7A
:1034D0000CF27768CCF1200C07FA0CF717434B1E5F
:1034E000DBB291E71A441F2A01DC32689AE732689E
:1034F000DA407168C3F1200301FA03F31A43002391
:1035000090E739462079FEF769FBB4E7012463E7C9
:10351000040D00202DE9F8439DF820709DF92480CA
:10352000B3F5006F63D204460D46164699463F2F09
:1035300060D808F12003DBB2402B5ED84A46FFF783
:1035400033FF844608B1002211E00021092907DC7D
:1035500005EB81039A78322A01D00131F6E79C46C7
:10356000BCF1000F4DD0ACF80090ECE70132312AED
:1035700007DC02EB420304EB830393F86130FF2B7B
:10358000F4D1322A40D09CF8023000210AE003EB4B
:10359000430189005831214403EB430304EB8303C7
:1035A00093F86130322BF2D102EB420004EB80043D
:1035B000A4F85C600A9BA3659DF92C3084F85E300A
:1035C00084F85F7084F86080322384F8613059B1E8
:1035D0004A722B4600205A1B242A10DC9A78322A81
:1035E0000DD001300433F6E78CF80220F1E74FF0FC
:1035F000FF3004E06FF0010001E06FF00200BDE871
:10360000F8836FF00300FAE76FF00400F7E710B5F6
:1036100084B09DF920400394079C02949DF91840C2
:103620000194009313460A4600F10801FFF772FF68
:1036300004B010BD70B584B0044615469DF928202D
:103640000392099A02929DF92020019200932B4641
:103650000A4600F13001FFF75DFF064600222946C9
:103660006068FFF75EFC304604B070BD08B51AF024
:103670001BFE024B0344980208BD00BFFEFF410041
:103680002DE9F04F85B00646FFF7F0FF8246D0F8EF
:10369000E8431AF0EDFDFA2150461AF0F7FD844296
:1036A00003D0002005B0BDE8F08F06F108095746A9
:1036B00021E02088FEF7B6FA0546B7F800B0B4F965
:1036C0000200002303931CF059FC029094F905308A
:1036D0000193237900935B462A4649463046FFF71B
:1036E00019FF0634A4EB08032A2B03DC94F90530F8
:1036F000002BDEDC3237A7EB0A03B3F5E17F08DCF1
:103700003A884FF6FF739A4203D007F10208444605
:10371000E8E70AF5FA7A06F13009574625E02088ED
:10372000FEF780FA0546B7F800B0B4F902001CF0C5
:1037300025FC002303934FF074511CF073FC02909E
:1037400094F905300193237900935B462A46494654
:103750003046FFF7DFFE0634A4EB08032A2B03DC18
:1037600094F90530002BDADC3237A7EB0A03B3F506
:10377000E17F08DC3A884FF6FF739A4205D007F1E3
:1037800002084446E8E701208CE701208AE7F8B503
:1037900005460F460E460EE02079FEF753FA038BDE
:1037A000A380647A04EB4404A40058342C44637A64
:1037B000FF2BF1D10436F31B242B08DCB378322B1A
:1037C00005D003EB4304A40058342C44EFE7F8BDC4
:1037D000F8B505460F460E460DE0A088FEF722FA22
:1037E000A080647A04EB4404A40058342C44637A27
:1037F000FF2BF2D10436F31B242B08DCB378322BD9
:1038000005D003EB4304A40058342C44EFE7F8BD83
:10381000F0B583B00546FFF729FF064602462A4B5E
:103820000121197000234FF0FF3403E052F8041B0C
:103830000C400133FF2BF9DD1AF01AFD1AF056FE89
:1038400002201AF049FEB4F1FF3F38D105F1080714
:1038500039462846FFF79BFF05F1300421462846EC
:10386000FFF795FF0A233A4631462846FFF784FDC5
:103870000A23224606F128012846FFF77DFD019024
:10388000962305F1580206F150012846FFF774FD12
:103890000190012301AA06F52D712846FFF76CFD62
:1038A0001AF030FE39462846FFF792FF2146284697
:1038B000FFF78EFF044B00221A7003B0F0BD3046B4
:1038C0001AF0D0FDC2E700BF040D0020F8B5054690
:1038D000FFF7CCFE0446D0F8B4621AF0C9FCAA2166
:1038E00020461AF0D3FC864203D02846FFF7C8FED4
:1038F000F8BD05F108070A2221463846FEF7E0FB2D
:1039000005F130060A2204F128013046FEF7D8FB03
:10391000962204F1500105F15800FEF7D1FB39461B
:103920002846FFF755FF31462846FFF751FF012093
:10393000DEE7000010B5044608460D4B23600D4B32
:10394000236061602146FFF7DDFA04F1080120469B
:10395000FFF7EBFC04F130012046FFF7E6FC2046C0
:10396000FFF7B4FF2046FFF731FB204610BD00BF34
:10397000980E0208A80E0208836DC26D9342FBD018
:103980005A1C826503F03F03034419764FF0FF335E
:1039900043617047A0F10400FFF7EEBF10B5044685
:1039A000017C002201F5C0618068FFF7BAFA617CF2
:1039B0003F2900D910BD002201F5B061A068FFF7D2
:1039C000B0FAF7E710B5044608460E4B23600E4BDD
:1039D00063600E4B03F1080121601C336360A0603B
:1039E000E26001232374FF2262744FF0FF326261B0
:1039F00084F87C302146FFF785FA2046FFF7CEFF9A
:103A0000204610BD980E0208640B0208B00E020892
:103A100008B501748068FFF7A7FA08BD10B50C4619
:103A2000B1F80130B3F5A04F11D045F20102934235
:103A300036D045F20202934244D080232370002303
:103A4000237163710223A3710623E37110BD0A7809
:103A5000402AEAD143230B70CB78032B16D8DFE83A
:103A600003F002070C11354BD3F8E8374B60EDE754
:103A7000324BD3F8EC374B60E8E7304BD3F8F037F4
:103A80004B60E3E7FEF720F96060DFE780230B700F
:103A900000230B714B7102238B710623CB71D5E789
:103AA0002378402BD2D14FF0FF3323716371002371
:103AB000A371E3714122227083654023C365E378DB
:103AC0004361C3E72378232BB7D160232370E378C6
:103AD000032B28D8DFE803F002171F2190F87C3071
:103AE00043B172B6C06808B1FFF792FEFEF74CFE14
:103AF00062B6ABE780232370002323716371A37147
:103B00000823E371A2E772B6FEF799FE62B636208B
:103B1000FDF744FC9AE71BF0E9FAFEF79BF8362024
:103B2000FDF73CFC92E7802323700023237163712F
:103B30000223A3710623E37188E700BF00F0FF1F93
:103B40002DE9F04184B006460C46B1F80120C2F3DD
:103B5000C017CD7825B1013D05EBD575C5F34705F7
:103B600003AB00932B4602F03F023946F068FFF7A3
:103B700079FB80462378402B0DD0232B3DD080232A
:103B800023700023237163710223A3710623E37161
:103B900004B0BDE8F08130B30079FEF753F8028B32
:103BA000E37823B9039B636043232370F0E713F0AA
:103BB000010F09D098F8073042EA034298F908301B
:103BC00042EA03626260EFE71349D8F800001CF094
:103BD00029FA1CF029FC20F07F4398F9062043EADB
:103BE00002636360E0E78023237000232371637125
:103BF0000223A3710623E371CAE70028BFD06368DC
:103C0000002BBCD1B4F801202B4602F03F0239460C
:103C1000F068FFF745FABBE700007A440B78232BE6
:103C200000D070472DE9F04184B006460C46154699
:103C3000CB78B3B94B68B3F5006F03D2436660230A
:103C400023700BE04FF0FF33436680232370002383
:103C5000237163710223A3710623E37104B0BDE8ED
:103C6000F081476EB7F1FF3F01D0012B29D096F9C3
:103C70007080B8F1000FE8D0022BE6D1606820F028
:103C80007F401CF077F91F491CF080FAB06663682A
:103C90001B1686F86E303DB302930190CDF800807C
:103CA00096F86F303A4696F86C10F068FFF7C2FC51
:103CB000002386F870304FF0FF3373660028BEDAB9
:103CC000C3E7486880B2FDF7ADFF80B2A6F86C008C
:103CD0006368C3F3054386F86F3063681B1686F884
:103CE00070303528ABD9B0E702930190CDF8008051
:103CF00096F86F303A4696F86C10F068FFF787FC3C
:103D0000D6E700BF00007A4438B504460D460B786C
:103D100003F06002602A1CD0B1F80130B3F5005FF7
:103D200044D003F47F42B2F5045F3FD0C16811B1C3
:103D3000B3F5405F6FD019B143F2010083426FD0F9
:103D400011B1B2F5445F71D029462046FFF766FEF7
:103D500018E003F010030B700122072A0DDCE36D5D
:103D6000A16D591A402908D0591CE16503F03F03A1
:103D700023441B7EAB540132EFE7E36DA16D5B1A68
:103D8000402B09D0A068217C03685C6808232A4680
:103D900001F5B061A04738BD2B7843F001032B70CB
:103DA000C2F1080243EA42022A70EBE7E87803F422
:103DB0007F42B2F5045F0CD0352822D82B78232B14
:103DC0000DD0402BDED1FDF7D3FE686043232B706E
:103DD000D8E71B029BB21844FDF724FFECE76968A3
:103DE000FDF7A6FE10B960232B70CBE780232B7064
:103DF00030232B7100236B710923AB710623EB7108
:103E0000C0E780232B7000232B716B710223AB71F1
:103E10000623EB71B6E700222946FFF7FFFEB1E764
:103E2000012229462046FFF7F9FEABE72946204646
:103E3000FFF786FEA6E708B5037C03F5C0638B4257
:103E400006D0437C03F5B0638B4206D0002008BD4A
:103E50001146FFF759FF0120F9E71378803B18BF9F
:103E6000012380F87430536883670120EFE7000076
:103E70002DE9F04184B00C4615461E469DF8307081
:103E8000FDF7E0FED0F804801449154B1868FEF7E2
:103E90004BFBE7B11349124B1868FEF745FB4FF097
:103EA00084410A981CF0BEF80D4B1F689DF92C3018
:103EB00003931CF093FA0290019600952346424624
:103EC00009493846FEF730FB04B0BDE8F0810749E8
:103ED000034B1868FEF728FBE1E700BFD00E02088D
:103EE000080D0020D80E0208E00E0208DC0E0208C1
:103EF00070B504460846FEF7B9F805462021FEF7DE
:103F000068F80378A3B1002300F8013B0521FEF710
:103F10004AF906462846FDF771FE372812D0314689
:103F2000FDF706FE48B90A492046FEF7FDFA03E010
:103F300008492046FEF7F8FA70BD07492046FEF70B
:103F4000F3FAF9E72A4605492046FEF7EDFAF3E7CA
:103F5000100F0208F40E02081C0F0208340F0208AA
:103F6000F8B507460846FEF781F805460BE0FDF771
:103F7000FFFD02460E493846FEF7D6FA254605F8FB
:103F8000016B2C2E12D12C212846FEF722F8044674
:103F90000678002303702846FDF730FE3728E6D167
:103FA0002A4604493846FEF7BFFAE7E7F8BD00BFE6
:103FB0004C0F0208540F02082DE9F041074608464D
:103FC000FEF754F880462021FEF703F803789BB1F2
:103FD00004460646002306F8013B4046FDF70EFE68
:103FE0000546372829D06378212B0AD07E2B08D0AC
:103FF0002F2B06D0002406E013493846FEF794FA2A
:104000000FE0A61C012431461048FDF7CDFF50B942
:1040100074B101212846FDF73FFE0D493846FEF7F1
:1040200083FABDE8F0810B493846FEF77DFAF8E7E0
:1040300001212846FDF728FEEFE7424606493846AB
:10404000FEF772FAEDE700BF700F0208800F02085A
:10405000980F0208880F0208340F02082DE9F04F6C
:104060008BB007460846FEF701F8037805934649EA
:104070003846FEF759FA00264FF0200822E0434A5E
:10408000039202930190CDF800A04B46424640496E
:104090003846FEF749FA2846FDF70CFE20B12846BF
:1040A000FDF708FE01285AD1E2682369616920689A
:1040B00002960190009137493846FEF735FA4FF0E5
:1040C0002C080136352E51D8F5B22846FDF7BAFD39
:1040D00004462846FDF7E8FD10F0010F02D0059BCD
:1040E000682BEED1D4F80490D4F808A0B4F818B036
:1040F0002846FDF73DFD0290CDF804B0CDF800A0B4
:104100004B46424624493846FEF70EFA0DF11F038E
:1041100003930DF11E03029309AB01930DF11D03EF
:10412000009307AB08AA29461C480068FFF74DF822
:104130000028B0D0DDF820809DF81C909DF91DA0CE
:104140004FF0844109981BF06DFF1CF047F99DF971
:104150001E309DF81F20002A91D0114A90E7114986
:104160003846FEF7E1F94FF02C08AAE70E4BD3F8DA
:10417000F0270E493846FEF7D7F90D493846FEF7C5
:10418000D3F90BB0BDE8F08FBC0F0208AC0F0208EA
:10419000F00F020854100208C00F02080C0D002096
:1041A000B40F02084010020800F0FF1FA41002081C
:1041B000E01002082DE9F0478AB004460023059379
:1041C00006930793089309930846FDF74FFF057878
:1041D000702D39D0632D45D02021FDF7FAFE0378EC
:1041E000002B48D0FDF742FF07462021FDF7F1FEE6
:1041F000064603780BB9642D44D1002306F8013B31
:104200003846FDF7FBFC81463046FDF72FFF06469A
:10421000B9F1370F3BD0642D3ED04FF000084FF07E
:104220007E5AB8F1040F62DC20213046FDF7D1FE42
:1042300007460378002B3AD1B8F1020F37DC554915
:104240002046FEF771F91AE0534B1B68002BFBD197
:10425000514D2C605149524B1868FFF72FF800233D
:104260002B600CE04E4B1868FFF777F84D4920465D
:10427000FEF75AF903E047492046FEF755F90AB020
:10428000BDE8F08743492046FEF74EF9F7E7464977
:104290002046FEF749F9F2E74946414B1868FEF718
:1042A0004FFF024641492046FEF73EF9E7E700236B
:1042B0003B703046FDF7C2FEB8F1030F0BD00AABDE
:1042C00003EB880343F8140C781CFDF7CFFE064679
:1042D00008F10108A5E710213046FDF764FF1BF047
:1042E0004DFE4FF05E511BF09DFE8246ECE7742DB3
:1042F00017D09DF924300293CDF804A09DF91C300D
:1043000000939DF81830059A494625480068FFF744
:1043100091F9431D042B32D8DFE803F0262C201A34
:1043200014009DF924300293CDF804A09DF91C30AF
:1043300000939DF81830059A494619480068FFF720
:1043400066F9E6E7059A1A492046FEF7EDF896E782
:10435000069A18492046FEF7E7F890E7079A1649AB
:104360002046FEF7E1F88AE7059A14492046FEF751
:10437000DBF884E712492046FEF7D6F87FE70128EC
:1043800006DD104B024610492046FEF7CDF876E7D1
:104390000E4BF7E70C110208080D0020713E0008D3
:1043A0000C0D0020E8100208201102083411020848
:1043B0004C110208601102087411020888110208E9
:1043C000B011020884070208CC110208A80F0208E5
:1043D00010B504460C4B1B788BB172B60B4B1868AA
:1043E000FFF716FA0A492046FEF79EF8FEF7CCF9C9
:1043F000024662B607492046FEF796F810BD064908
:10440000FEF792F8FAE700BFE80600200C0D002046
:10441000F8110208081202082412020810B5044616
:1044200072B6FEF70CFA62B638B93620FCF7B6FF62
:1044300004492046FEF778F810BD03492046FEF7F0
:1044400073F8F9E7681202087C12020808B51AF03E
:104450004DFE2DE9F843054688461746002607E03D
:1044600008F80600013623782C2B13D1BE4211D256
:104470002C212846FDF7ADFD044690F8009000235E
:1044800003702846FDF7BAFB254605F8019B37283F
:10449000E6D1E8E73046BDE8F88300002DE9F041B9
:1044A00084B006460846FDF7E1FD0446FDF7C6FD6B
:1044B000804620212046FDF78CFD03784BB10A226F
:1044C00001A90130FFF7C5FF07463046FDF70CFC98
:1044D00026E019493046FEF727F804B0BDE8F08120
:1044E000B8F1FF3FF9D1154D00240EE004F110039F
:1044F0006B4413F80C0CFDF73BFB03462A461049AE
:104500003046FEF711F801340E4DBC42EEDB0E4989
:104510003046FEF709F8B8F1FF3F01D008F1FF3847
:104520003046FDF7DBFB0028D7D1B8F1000FD7DD0F
:10453000024D0024E9E700BF94120208A80F020808
:10454000B4120208840D020864120208012800D087
:1045500070474FF6FF739942FAD1034B034A136039
:104560000833034A1360F3E7EA180020200D002007
:10457000280D00203A4B1A8843F60E339A4206D093
:10458000384B1A8843F60E339A4200D07047364BA8
:1045900093F83E30012BF9D1334B93F83F30FE2B8B
:1045A000F4D110B5304B93F8402093F8411001EB53
:1045B000022189B249F2010399424CD12A4A92F868
:1045C000421092F843301B0403EB016392F844104D
:1045D00003EB012392F845201344142B3ED12349C9
:1045E0004FF4007003F000FCCB2003F0F3FB00233A
:1045F0000F2B08D803F108011D4A895C1D4AD154CC
:104600000133DBB2F4E7184B93F8562093F8573098
:1046100003EB0223184A1380184B1B7813B9174B6E
:104620005C784CB116494FF4007003F0DDFB03F0E9
:1046300075F900F0A1FD11E012494FF4007003F08C
:10464000D3FB052CEED8A31D074AD25C0B4B1A55A1
:104650000134E4B2F5E70C48FDF734FF10BD00BFAC
:104660004C0D0020240D0020B8170020BC120208B9
:10467000F6170020100D0020640D00200C0F002004
:1046800028130208E81202084C13020810B50D4B5B
:104690001B780E330C4A13800C4C33232370637049
:1046A0000023A370E37023710123637103F08EFB79
:1046B000062102F0FBFE86232373DD23637303F0E0
:1046C000E9FD10BD3C0D0020AE190020B4180020FB
:1046D00008B5164B197801F12802154B1A70154AC6
:1046E000602393730023D373137453749374D1743E
:1046F000112111750A21517507E003F108010E4AD5
:10470000D05C0E4A88540133DBB20F2BF5D900235D
:1047100007E003F118010A4AD05C084A88540133C3
:10472000DBB20F2BF5D9FFF7B1FF08BD460D002016
:104730003C0D0020B418002094140208C218002078
:10474000A414020810B582B0124B19780831C9B20E
:10475000114B1970114A13881B0A114C2068037001
:10476000138843703B2383700E23C37000230371AF
:1047700041718371C371112300930A4B0A4A02F0FD
:1047800087FDC0F30F2223689A71D871FFF7A0FF4D
:1047900002B010BD4A0D0020460D0020EA060020A0
:1047A000200D0020A41402089414020808B50E4934
:1047B0004FF4007003F018FB0C4B0A221A700C4BDC
:1047C0001B6801221A70FE225A7090229A700022F1
:1047D000DA701A715A719A710221D9711021197205
:1047E0005A72FFF7AFFF08BD701302084A0D002090
:1047F000280D002030B583B0404D10222946404896
:104800001BF038FE3F4C0622A5F1100120461BF09C
:1048100031FE0021204602F055FE03F0D7FA0621B2
:1048200002F044FE384A86231373DD23537360235A
:1048300093730023D3731374537493742021D1742E
:104840003A211175FF21517507E003F116022F4936
:10485000C85C2D4988540133DBB20F2BF5D90023F6
:1048600007E003F126022649C85C27498854013332
:10487000DBB20F2BF5D9244C882384F83630002383
:1048800084F8373084F8383084F83930602284F87E
:104890003A2084F83B3084F83C3084F83D301B4D9E
:1048A0001022294604F13E001BF0E4FD022384F8A7
:1048B0004E30012384F84F3003F088FA0146062277
:1048C00004F150001BF0D6FD3A2300930C4B2A460E
:1048D000202104F1360002F0DBFCC0F30F2384F842
:1048E000383084F839000A4B56221A800949802052
:1048F00003F07AFA03F0CEFC03B030BDCE170020EF
:104900002C0D0020400D0020B41800209414020843
:10491000AE1900209013020838B5374B1B883C2B8A
:1049200000D838BD354C1022214635481BF0A2FD79
:1049300014F8024C112C15D0062C4ED03A2CF0D184
:104940003049802003F050FA2F4B93F83630872BF4
:10495000E7D12E4803F082FAFFF74CFF2C4803F012
:104960007DFADEE72B49802003F03EFA264B93F8D0
:10497000361093F8372002EB012227490A8093F87A
:10498000381093F8392002EB012224490A8093F869
:104990003A1093F83B2002EB012292B220490A80A0
:1049A00093F83C1093F83D3003EB01231D490B8035
:1049B000642A0DD8082ABFD9083A1B4B1A801B4815
:1049C00003F04CFAFFF7D6FD194803F047FAB3E7B6
:1049D0001849802003F008FAA3E71749802003F064
:1049E00003FA164D284603F039FA00F02DF928464F
:1049F00003F034FAA2E700BFB2180020CE1700205F
:104A0000540D00203C140208B81700204C14020872
:104A100070140208B4130208240D00204C0D00206D
:104A20004E0D0020500D0020480D0020D813020824
:104A3000F4130208C013020810140208201402081C
:104A400008B54FF6FF710120FFF780FD08BD00009B
:104A5000012800D070474FF6FF739942FAD1034BFB
:104A6000034A13601433034A1360F3E7EA18002083
:104A70006C0D0020840D002030B583B00246204923
:104A80000B881B0A1F4C206803700B8843701E4B59
:104A90001B88190A8170C3701C4B1B68190E0171A9
:104AA000190C4171190A8171C371194B1B68190ED8
:104AB0000172190C4172190A8172C372154B1B786D
:104AC000154909781944C9B2144D29709B081B0176
:104AD0000373427303238373E823C37300230374B4
:104AE00043748374C374062300930D4B0D4A02F084
:104AF000CFFBC0F30F2223681A74587403B030BD83
:104B0000EA0600206C0D0020640D0020EC06002059
:104B10007C0D0020810D0020880D0020700D0020EC
:104B2000100D00209414020808B50B4B1B780E33AF
:104B30000A4A138000210A4802F0C4FC03F046F937
:104B4000062102F0B3FC074B86221A73DD225A734A
:104B500003F0A0FB08BD00BF670D0020AE190020C8
:104B60000C0F0020B418002008B5164B197801F17D
:104B70002802154B1A70154A602393730023D373D0
:104B8000137453749374D174062111750A215175ED
:104B900007E003F108010E4AD05C0E4A8854013345
:104BA000DBB20F2BF5D9002307E003F118010A4A05
:104BB000D05C084A88540133DBB20F2BF5D9FFF7DC
:104BC000B3FF08BD700D0020670D0020B418002051
:104BD00094140208C2180020100D002008B50849DE
:104BE000202003F001F9074B14221A70064B002213
:104BF0001A701020FFF740FFFFF7B6FF08BD00BF97
:104C0000B4140208810D0020880D002008B5084961
:104C1000202003F0E9F8074B14221A70064B0022FB
:104C20001A701020FFF728FFFFF79EFF08BD00BF96
:104C3000CC140208810D0020880D0020014B18685B
:104C4000704700BF780D00202DE9F041514A1388CC
:104C500001331380504B997CDA7C02EB012292B233
:104C600093F842301B09B2EB830F03D39900521A19
:104C700092B200E00022484890F8361090F83730A1
:104C800003EB01239BB290F8384090F8391001EB08
:104C9000042189B241480088984203D1404B1B88C7
:104CA0008B4205D03F49202003F09EF8BDE8F081FB
:104CB0003D4BA5211980384B93F83A0093F83B10EF
:104CC000090401EB006193F83C0001EB002193F82B
:104CD0003D500D4493F83E0093F83F10090401EB5A
:104CE000006193F8400001EB002193F841400C442F
:104CF00093F84360122E17D02C4B1B78022B2CD12B
:104D0000531E9BB2C62B2DD916F0100FCED0214AC0
:104D1000138803F57A731380254B1C600023254A02
:104D20001360254A1370C1E7204B1B78012BBDD1BE
:104D30001F4B1C600135214B1D6040F22F1003F00A
:104D400049F81A4B02221A70FFF748FF00F01AFACE
:104D50001B49202003F048F8A8E71A49202003F057
:104D600043F8A3E7D2B2184F3A70DFF860801849D1
:104D700040461BF07FFB00F005FA397829440F4BC1
:104D80001960FFF743FF3B7842461249402003F089
:104D90003FF8B9E7B0190020B8170020640D0020D3
:104DA000EA060020E0140208680D0020800D0020B3
:104DB000EC060020740D0020660D00207C0D002004
:104DC000F414020808150208540E00208C0D00206F
:104DD000021800202815020810B51649202003F0FB
:104DE00003F840F22D1002F0F5FF134B1B68022070
:104DF000187504225A7505219975A021D9750124C9
:104E00001C760321597699760821D9761C775C7730
:104E10009A77D877094B20221A70094B00221A7012
:104E2000FFF72AFEFFF7A0FE064B1C70064BA522DB
:104E30001A8010BD381502086C0D0020810D00206D
:104E4000880D0020800D0020680D002008B5124B51
:104E50001B78022B00D008BD104B14221A70104B87
:104E60001B789A18C72A12DC0E4A12680E49402095
:104E700002F0CEFF1820FFF7FFFDFFF775FEFCF7ED
:104E8000BFFC0A4B18600A4B0A221A70E3E7094973
:104E9000202002F0A9FFDEE7800D0020810D002018
:104EA000880D0020840D002058150208740D002084
:104EB000660D00206C15020808B5234B1B684BB922
:104EC00000F058F8312827D800231F4A13601F4AE2
:104ED000137008BDFCF794FC1B4B1B68C01A6428B8
:104EE000EED91B4B1B7893B1FFF71EFE194A1368CE
:104EF00001331360FCF784FC134B1860144A1378D9
:104F0000013B13701449202002F06EFFD8E71349CB
:104F1000202002F069FFD3E700F02CF83228D8D126
:104F20000A4B1B78002BD4D10D4A138801339BB256
:104F300013804FF6E852934203D9094B4EF6602294
:104F40001A80FFF749FFC4E7740D0020800D002090
:104F5000660D0020780D0020AC150208E815020847
:104F6000EA06002008B54FF6FF710120FFF770FD3B
:104F700008BD0000014B1878704700BF620E00208A
:104F800000B587B01920FCF7F9FD10F0010F02D130
:104F900007B05DF804FBFCF733FC01460C4B1B88A3
:104FA00005930C4B1B8804930B4B1B8803930B4BF3
:104FB0001B8802930A4B1B8801930A4B1B880093A2
:104FC000094B1B88094A12880948FDF77BFADFE77D
:104FD000620E00205C0E00205A0E0020580E0020A9
:104FE0005E0E0020660E0020640E0020600E002081
:104FF0000416020808B5484B1B8813B1013B464A0A
:105000001380464B1B8813B1013B444A1380444B29
:105010001B8813B1013B424A1380424B1B8813B1DA
:10502000013B404A1380404B1B8813B1013B3E4A71
:1050300013803E4B1B8813B1013B3C4A13803C4B11
:105040001B8813B1013B3A4A1380394B1B88E3B1EB
:10505000384B64221A80304BA5221A80364B1A88AE
:10506000344B1B889A423ED1344B1A88344BA3FBF5
:105070000213DB0803EB4313D31A9BB2002B48D077
:105080002E4A13880133138008BD284B1B881BB19F
:10509000284B50221A80DEE7234B1B881BB1254B7F
:1050A00032221A80D7E71E4B1B881BB1214B1422DA
:1050B0001A80D0E71B4B1B881BB11E4B0F221A8096
:1050C000C9E7164B1B881BB11A4B0A221A80C2E78C
:1050D000114B1B881BB1174B05221A80BBE7154BE0
:1050E00000221A80B7E71920FCF748FD10F0010FE5
:1050F00004D1104B1A88104B1A80B5E7FCF780FBDF
:1051000001460C4B1B880C4A12880E48FDF7DAF951
:10511000EFE7FFF735FFB3E7600E0020640E0020D5
:10512000660E00205E0E0020580E00205A0E002051
:105130005C0E0020620E0020680E0020560E00203B
:10514000E1830F3E34160208034610B1044AA5213C
:105150001180012B03D9034B4FF4A5721A807047BD
:10516000640E0020660E0020024B4FF425721A8058
:10517000704700BF5E0E0020014BA5221A807047C9
:10518000580E0020014BA5221A8070475A0E0020AD
:1051900000EB4010014B1880704700BF5C0E0020F0
:1051A00010B5FFF7E7FE052806D0234B1B78012B2F
:1051B0001CD0022B35D010BD1F4B1B78002BF4D117
:1051C0001E494FF4807002F00FFE02F081FB03F0E5
:1051D00061F8062002F0FEFD194B00221A70194BEF
:1051E0000F221A70144B01221A70E4E7154B1B783A
:1051F0001BB1013B134A1370DDE7114C012322461A
:1052000011494FF4807002F003FE207830B90D4B45
:105210000F221A70084B02221A70CCE7FFF794FF96
:10522000F5E7084B1B781BB9034B00221A70C2E745
:10523000013B044A1370BEE76A0E00206C16020898
:10524000120F00206B0E00209016020810B50C46BD
:105250001AF094FE04E008491AF0E4FE013C64B23E
:10526000002CF8DC04E004491AF090FF013464B229
:10527000002CF8DB10BD00BF0000204100B583B05A
:1052800002AB03E903009DF90010BDF90400FFF72C
:10529000DDFF03B05DF804FB704770477047000006
:1052A000074B1A78074B33F812302BB1064A128895
:1052B000934203D3002070470020704701207047BD
:1052C000840E0020302302086E0E002008B5054A27
:1052D000054B5360054B1B78083B13600A20FFF712
:1052E00057FF08BDB4EA0020940D0020540E0020A2
:1052F00010B50C46154B196801220A7019684FF059
:10530000FE0C81F801C019684FF0800C81F802C0D2
:105310001968CA7022161B681A7122145A71221257
:105320009A71DC71BF2C0BD82246014603F10800AC
:105330001BF0A0F80834064B1C70FFF787FD10BD6A
:105340000449082002F050FDF9E700BF840D002059
:10535000880D0020B016020810B5054C002323600C
:1053600018F08AFC2178034B5868FFF7C1FF10BD85
:10537000D8EA0020C8EA002010B518F059FC0D4CFE
:1053800004F5C04292F8C43343F0020382F8C433F8
:10539000094818F043F904F540540123C4F8B8351E
:1053A000002384F8C93501F00DFC84F8CA05FFF725
:1053B000D3FF10BDD885002090BB002008B5014662
:1053C000044B1870044B00221A801A20FCF7F8FBDB
:1053D00008BD00BF840E00206E0E002008B5FFF748
:1053E000C9FD4F2810D8154B1B7803B908BD002004
:1053F000FFF7E4FF01F002FC01F0FAFB0023104A82
:105400001370104A1380F1E7FFF7B4FD50280DD058
:105410000A4B1A780C4B53F822309847FFF740FF9D
:105420000028E3D01320FFF7C9FFDFE7034B1B7809
:10543000002BEDD10220FFF7C1FFE9E7840E002029
:105440006C0E0020780E0020B022020808B50A4B2E
:105450001B781BB1013B084A137008BD4FF4AF60C5
:1054600002F0B8FC0549082002F0BEFC01F0B2FCD5
:105470001620FFF7A3FFF0E76D0E0020DC160208F0
:1054800008B50C4B1B781BB1013B0A4A137008BDD1
:105490000949082002F0A8FC40F2145002F09AFCDE
:1054A00001F0A6FB034B21221A701520FFF786FF9F
:1054B000EDE700BF6D0E00200C17020808B5084983
:1054C000082002F091FC40F24C4002F083FC01F015
:1054D00095FB044B42221A701420FFF76FFF08BDA2
:1054E000381702086D0E002008B50A49082002F09E
:1054F0007BFC0520FDF7D8F94FF4966002F06AFCBA
:1055000001F07CFB044B42221A701420FFF756FF77
:1055100008BD00BF381702086D0E002008B50F4BFC
:105520001B78082B00D808BD0D49082002F05CFC50
:10553000FFF7CCFE18F068FB084B00221A70094BED
:1055400093F8C23313F0400FEDD00749082002F062
:105550004BFC1620FFF732FFE5E700BF540E00209A
:1055600060170208008200208017020808B5364B39
:105570001B78082B00D808BD3449082002F034FC01
:10558000FFF7A4FE18F040FB2F4B00221A70304B9F
:1055900093F8C43313F0040FEDD02E4B93E80300BF
:1055A000FFF76CFE01462C4B18601E20FCF716FB23
:1055B0001920FCF7E3FA10F0080F13D12749264B06
:1055C00018681AF0CDFEB0B9254B1B78092B32D8DC
:1055D0002449082002F008FCFFF7CEFE1020FFF758
:1055E000EDFEC8E71C4B18681AF0F8FE01461E488D
:1055F000FCF768FFE2E71D49082002F0F5FB18F010
:1056000017FB1B4A92F8C23343F0200382F8C233DF
:10561000184818F0F5F84FF4617002F0DBFBFFF763
:105620009BFE1549082002F0DFFB01F0D3FB11209F
:10563000FFF7C4FE9FE71149082002F0D5FB0620C2
:10564000FDF732F997E700BF540E002098170208C3
:1056500000820020C8570020740E00200000204265
:105660007C0E002030180208BC170208D817020868
:10567000D8E5002090BB0020181802088018020806
:105680000E4B1B781BB1013B0C4A1370704710B5D1
:105690000B49082002F0A8FB01F0AAFA0024094BEC
:1056A0001C7040F2523002F095FB074B1C70FFF764
:1056B00063FE1020FFF782FE10BD00BF6D0E0020BC
:1056C000E81802086C0E00207C0E002038B5054654
:1056D00018F0AEFA1E4C04F5C04292F8C13343F004
:1056E000800382F8C1331B4818F065F804F5405474
:1056F000C4F8B85594F8B03643F0010384F8B036D6
:105700000123C4F89036002584F8A15601F05AFA16
:1057100084F8A206C4F8AC5694F8983643F0010316
:1057200084F89836C4F8945694F8A03643F00103F0
:1057300084F8A036C4F89C5694F8A83643F00103C8
:1057400084F8A836C4F8A456FFF706FE38BD00BF9B
:10575000D885002090BB002038B518F069FA364C87
:1057600004F5C04292F8C33343F0800382F8C33398
:10577000324818F0A1F804F540540123C4F8B835B4
:10578000002584F8C95501F01DFA84F8CA0584F88B
:105790001C56052384F81D3694F81E3643F0010389
:1057A00084F81E3601F0D7F9A4F8200684F8CC5509
:1057B000032384F8CD3594F8CE3543F0010384F803
:1057C000CE3501F0E5F9A4F8D005C4F8005694F8F8
:1057D000FC3543F0010384F8FC35C4F8F85594F81F
:1057E0000C3643F0010384F80C3684F80456022288
:1057F00084F8052694F8063643F0010384F806364B
:105800004FF49663A4F8083694F8183643F0010371
:1058100084F8183684F8105684F8112694F8123655
:1058200043F0010384F812364FF41673A4F81436CB
:10583000FFF792FD38BD00BFD885002090BB002047
:1058400038B5504B1B78082B00D838BDFFF73EFD0C
:1058500018F0DAF94B4B00221A704B4B93F8C43313
:1058600013F0010FF1D0494B1A70494B93F8BE3534
:10587000022B2CD0464B93F8BE35052B37D001F0C8
:10588000F9FA444B187001F0A3F930B9414B1B7879
:105890001BB93E4B1B78002B3FD001F099F9002833
:1058A00062D13C4B1B78002B67D03B49082002F0AB
:1058B0009BFA0024394B1C704FF4487002F08AFAAE
:1058C0002046FFF703FF0D20FFF778FDBDE73449C1
:1058D000082002F089FA40F2163002F07BFA2B4BD6
:1058E00001221A7004213220FCF76AF9C2E72D491F
:1058F000082002F079FA0024284B1C704FF44870FD
:1059000002F068FA2046FFF7E1FE0D20FFF756FD92
:1059100006213220FCF754F9B1E701F0EDF81C4CF8
:1059200004F5B96393E80300FFF7A8FC05461E4B96
:10593000186004F5BA6494E80300FFF79FFC1AF0BE
:1059400073FD84B229461E20FCF748F921461F202A
:10595000FCF736F940F2C62002F03CFAFFF7FCFEF5
:105960000E20FFF72BFD70E71049082002F03CFAEB
:1059700005213220FCF724F99BE70D49082002F0AD
:1059800033FA96E7540E0020008200207F0E00209C
:10599000005200207D0E0020B01902087E0E00206B
:1059A000201902085C190208740E002080190208F0
:1059B000F019020808B51A4B1B78082B00D808BD4F
:1059C000FFF784FC18F020F9154B00221A70154BD4
:1059D00093F8C23313F0010FF1D0134B1B786BB166
:1059E0001249082002F000FA4FF42F7002F0F2F989
:1059F000FFF7B2FE0E20FFF7E1FCE0E740F22A30AD
:105A000002F0E8F901F0FAF80949082002F0ECF98F
:105A1000084B0A221A700F20FFF7D0FCCFE700BF17
:105A2000540E0020008200207E0E0020341A02084E
:105A3000741A02086D0E0020104B1B781BB1013B3D
:105A40000E4A1370704710B501F012FA044608B9F7
:105A50002CB910BD0A49082002F0C6F9F8E7094937
:105A6000082002F0C1F90120FFF730FE064B0122A9
:105A70001A700D20FFF7A2FCEBE700BF6D0E0020AF
:105A8000C01A0208841B02087E0E002070B518F0B0
:105A9000CFF81A4C04F5C04292F8C33343F0200308
:105AA00082F8C333164817F02CFF04F54054012642
:105AB000C4F8B865002584F8C95501F083F884F866
:105AC000CA0584F8CC55052384F8CD3594F8CE3535
:105AD000334384F8CE3501F021F8A4F8D00584F8DA
:105AE000D455032384F8D53594F8D635334384F858
:105AF000D635A4F8D865FFF72FFC70BDD8850020F7
:105B000090BB002038B500F0F5FF354B1B7843B94A
:105B1000344B1B78082B08D8FFF7C2FB00285AD15A
:105B200038BD013B2E4A1370FAE7FFF7CFFB18F0A0
:105B30006BF82C4B00221A702B4B93F8C33313F0E5
:105B4000400FE9D02949082002F04EF9284B93E88C
:105B50000300FFF793FB0146264B18601E20FCF75D
:105B60003DF800F0D5FF84B200F0D8FF85B21920CF
:105B7000FCF704F810F0080F11D1641B1334262C25
:105B800003D81D4B1B88AB4211D31C49082002F0DF
:105B90002BF9FFF77BFF124B0F221A70BCE7164B55
:105BA0001B882A4621461648FCF78CFCE5E7154978
:105BB000082002F019F901F015F80124124B1C70AD
:105BC0004FF4167002F006F92046FFF77FFD0D2016
:105BD000FFF7F4FBA0E70320FCF766FEA0E700BF99
:105BE0006D0E0020540E002000820020E81A0208EA
:105BF000C8570020740E0020700E0020A01B020861
:105C0000081B0208481B02087E0E002010B518F081
:105C10000FF80F4C04F5C04292F8C33343F0080369
:105C200082F8C3330B4817F017FD04F540540123E5
:105C3000C4F8B835002384F8C93500F0C3FF84F8F0
:105C4000CA05FFF789FB1F20FFF7A2FA10BD00BFAE
:105C5000D885002090BB002038B5274B1B881D2B12
:105C600003D9264B1B78082B00D838BDFFF72EFB35
:105C700017F0CAFF214B00221A70214B93F8C3334F
:105C800013F0100FF1D01F4B93F8B85593F8C84597
:105C900011461E20FBF794FF04B95DB11A4B1B8817
:105CA0003C2B1CD91949082002F09EF81320FFF75D
:105CB00085FBDAE71649082002F096F81549082016
:105CC00002F092F840F23A2002F084F8FFF7DEFE8C
:105CD0001F20FFF75DFA0B20FFF770FBC5E70133CC
:105CE000094A13800C49082002F07EF8FFF78EFF66
:105CF0000A20FFF763FBB8E76E0E0020540E002069
:105D000000820020005200207A0E00201C1C020895
:105D1000CC1B0208041C0208441C020808B501F050
:105D20009DF818B9FFF7BCFA88B908BD0A490820E0
:105D300002F05AF84FF40C7002F04CF8FFF766FFCF
:105D4000064B01221A800A20FFF738FBEAE70420FD
:105D5000FCF7AAFDE9E700BF641C02087A0E0020E8
:105D600070B517F065FF474C04F5C04292F8C13397
:105D700043F0200382F8C133434817F0F0FD04F5E7
:105D80004054032684F8B8650025C4F8EC5500F0AB
:105D900019FF84F8FE050F20FBF7F0FEA4F80406B7
:105DA00084F8005694F8023643F0010384F8023672
:105DB00084F8016694F8103643F0010384F8103635
:105DC0000D20FBF7DBFE00EB80004000A4F80C0682
:105DD000022384F8083694F80A3643F0010384F865
:105DE0000A36072384F809360E20FBF7C7FEA4F80D
:105DF000180684F8145694F8163643F0010384F814
:105E00001636052384F8153694F8243643F001033A
:105E100084F8243642F21070A4F82006012184F898
:105E20001C1694F81E360B4384F81E36092284F89B
:105E30001D2694F830360B4384F83036A4F82C062F
:105E400084F8281694F82A360B4384F82A3684F806
:105E5000292694F832360B4384F83236642384F8CA
:105E6000313694F834360B4384F83436502384F8B2
:105E7000333694F838360B4384F83836FFF76CFA2B
:105E800070BD00BFD885002090BB00203B4B1B8815
:105E90001D2B03D93A4B1B78082B00D8704770B5DF
:105EA0003849082001F0A0FFFFF710FA17F0ACFE08
:105EB000334B00221A70344B93F8C13313F0400F68
:105EC0000ED0324B93F8B9355BB1314B1B883B2B6D
:105ED00047D93049082001F087FF1320FFF76EFAF9
:105EE00070BD2D49082001F07FFF274C04F5617338
:105EF00093E80300FFF7C2F9064604F55C7393E8E4
:105F00000300FFF7BBF9054604F5657494E8030048
:105F1000FFF7B4F91AF088FA204B18803146222096
:105F2000FBF75CFE29462120FBF758FE40F22620B5
:105F300001F050FF00F06CFE1949082001F054FFF9
:105F400000F042FF00F096FF38B11649082001F03A
:105F50004BFF0520FFF732FAC2E70920FFF72EFAC0
:105F6000BEE701330A4A13800F49082001F03CFFC5
:105F7000FFF7F6FE0820FFF721FAB1E76E0E0020CA
:105F8000540E0020A81C02080082002000520020AD
:105F9000820E00206C1D0208DC1C0208700E00201E
:105FA000241D02084C1D0208A41D020808B5244B3C
:105FB0001B881D2B03D9234B1B78082B00D808BD49
:105FC0002149082001F010FFFFF780F917F01CFEAF
:105FD0001C4B00221A701D4B93F8C13313F0100FA5
:105FE000EDD01B4B93F8B9355BB11A4B1B88772B5F
:105FF00018D91949082001F0F7FE1320FFF7DEF940
:10600000DDE71649082001F0EFFE4FF4077001F0BC
:10601000E1FEFFF7A5FE124B01221A800820FFF7D0
:10602000CDF9CCE701330B4A13800E49082001F06B
:10603000DBFEFFF791F90720FFF7C0F9BFE700BFCC
:106040006E0E0020540E0020E41D02080082002085
:1060500000520020800E0020641E0208141E020858
:10606000820E0020901E020808B5194B1B78082BE1
:1060700000D808BD1749082001F0B6FEFFF726F941
:1060800017F0C2FD124B00221A70134B93F8C13364
:1060900013F0010FEDD01149082001F0A5FE40F2E8
:1060A000122001F097FE17F0C3FD0D4A92F8C1339C
:1060B00043F0080382F8C1330A4817F0BAFAFFF731
:1060C0004BF9094B01221A800720FFF777F9D0E737
:1060D000540E0020D01E020800820020001F02087B
:1060E000D8E5002090BB0020800E00201E4B1B78BE
:1060F000082B00D8704710B51C49082001F074FE29
:10610000FFF7E4F817F080FD174B00221A70184BC8
:1061100093F8C03313F0100F00D110BD15490820BB
:1061200001F062FE17F084FD134C04F5C04292F8B2
:10613000C03343F0800382F8C033104817F0B6FA3A
:1061400004F54053012283F8B825A3F8BC25A3F831
:106150003C264FF4027001F03DFEFFF7FDF80620EB
:10616000FFF72CF9D9E700BF540E0020341F0208B6
:1061700000820020601F0208D885002090BB00200C
:1061800038B5214B1B78082B00D838BD1F49082093
:1061900001F02AFEFFF79AF817F036FD1A4B00229D
:1061A0001A701B4B93F8C03313F0040FEDD0194D48
:1061B000194C0822294620461AF05CF92B7A174A16
:1061C000137022461649082001F022FE4FF4FD709C
:1061D00001F000FE1349082001F006FE17F028FD2B
:1061E000114A92F8C03343F0080382F8C0330F48D5
:1061F00017F032FC4FF4FF7001F0ECFDFFF7ACF844
:106200000520FFF7DBF8C0E7540E0020881F0208C6
:106210000082002000220020DCEA0020E4EA0020C6
:10622000B01F0208E01F0208D8E5002090BB002044
:1062300038B5314B1B78082B04D8FFF731F800280C
:1062400056D138BD2D49082001F0CEFDFFF73EF8AC
:1062500017F0C6FC284B00221A70294B93F82438FB
:1062600013F0020FE9D02749082001F0BDFD2449B1
:106270008A784B7802F0010209782348FCF722F96A
:106280002249082001F0B0FD4FF4FA7001F0A2FDA0
:1062900017F0CEFC1E4D05F5C04292F8C03343F016
:1062A000020382F8C0331B4817F047F900242C7012
:1062B0006C70AC70EC702C716C71AC71EC7108236B
:1062C0002B81052C0AD801F081FD015D104B234480
:1062D00043F2B85299540134E4B2F2E70E4B06226D
:1062E000A3F8C025FFF738F80420FFF767F8A4E704
:1062F0000220FCF7D9FAA4E7540E0020002002087F
:10630000D0190020382002085020020884200208FA
:10631000D885002090BB0020D8B5002008B50B49D7
:10632000082001F061FD4FF4C87001F053FD2221F7
:106330000748FEF7DDFF00F0C7FD00213220FBF724
:106340003FFC0320FFF73AF808BD00BFD420020845
:106350000C23020808B5034A138801331380FFF7A2
:106360003DF808BD6E0E002010B504460720FBF76F
:106370000DFC0146204619F009FF18F0E5FE044621
:106380000820FBF703FC0146204619F0FFFE0649F2
:1063900019F040FD01464FF07E5019F0F7FE034919
:1063A00019F036FD10BD00BF0FCF5B3B3393884320
:1063B00038B52C48FCF776F919F0DCFD01462A487F
:1063C00019F0E4FE4FF07E5119F022FD01462748F6
:1063D00019F0DCFEFFF7C8FF054601462420FBF755
:1063E000FDFB2348FCF75EF919F0C4FD01461E4889
:1063F00019F0CCFE4FF07E5119F00AFD01461B4802
:1064000019F0C4FEFFF7B0FF044601462520FBF754
:10641000E5FB2146284619F0C1FF00B12C4615487E
:10642000FCF740F919F0A6FD01460F4819F0AEFE41
:106430004FF07E5119F0ECFC01460C4819F0A6FE15
:10644000FFF792FF054601462620FBF7C7FB2946CA
:10645000204619F0A3FF00B1254629462720FBF767
:10646000BDFB38BDF40B002000F07F4500401C460A
:10647000F80B0020FC0B00202DE9F0415E48FCF7F2
:1064800011F919F077FD044601462A20FBF7A6FB17
:106490000920FBF773FB002835D15849204619F035
:1064A000C1FD574919F072FE0646DFF85881534F77
:1064B000304619F047F904460D46384619F042F9BE
:1064C0000022514B18F0DEFF02460B4620462946BB
:1064D00019F020FC00284BD145A3D3E90023204626
:1064E000294619F0F9FB002853D13146384619F0F6
:1064F0004DFE4FF07E5119F08BFC0146404619F0DD
:1065000045FE044635E00920FBF738FB012817D08B
:106510003A49204619F086FD394919F037FE19F03D
:1065200011F90022394B19F065F90022384B19F0A6
:106530008BFA19F019FC0646DFF8D880364FB7E71A
:106540002E49204619F06EFD2D4919F01FFE19F055
:10655000F9F800222D4B19F04DF900222C4B19F0BF
:1065600073FA19F001FC0646DFF8B0802C4F9FE764
:106570002C4C21462B20FBF731FB2B49204619F0F0
:106580000DFF40B12949204619F0EAFE60BB002505
:1065900002E00024EDE700252549204619F0FEFE23
:1065A00028B12449204619F0DBFE00B1224D2349D1
:1065B000204619F0F3FE30B12149204619F0D0FEF3
:1065C00008B14FF084451F49204619F0E7FE28B175
:1065D0001D49204619F0C4FE00B11C4D29462C204F
:1065E000FBF7FCFABDE8F081194DD5E7AFF3008069
:1065F0009A9999999999A93FEC0B0020333353400C
:1066000000F07F4500007A440000E03F00805740E2
:10661000008047400000A5430000A0400EA6944320
:106620000000904000401C46000096440000E144F9
:106630000000084400004C440000A041000030432A
:10664000000084430000A0420000F04200007C42B1
:1066500000005041014B01221A707047850E002046
:10666000014B00221A707047850E0020014B1878EC
:10667000704700BF850E00200F4B18780130C0B264
:1066800018700E4B1B78012B0AD0022B0ED0042B56
:106690000ED0052B0ED010F0010004D00120704761
:1066A00010F0020000D170470220704704207047AC
:1066B000062070470120F6E7890E0020860E002094
:1066C00010B52320FBF762FA19F0AEFEC0B207281E
:1066D0001DD8334B1B78042B15D80133304A137067
:1066E000002421462D20FBF779FA0021204619F0DD
:1066F00055FE00284BD02B4B1B78042B44D801337C
:10670000284A137046E0FFF7ABFF0024E9E70928A9
:1067100004D8234B00221A70234CE2E7542812D8E5
:1067200019F028FC19F00EF81BA3D3E9002319F087
:1067300061F819F0F9FAC0B219F01CFC0446184BC4
:1067400000221A70CDE7602812D8403819F016FCE4
:1067500018F0F8FF0022154B19F04CF819F0E4FA84
:10676000C0B219F007FC04460D4B00221A70B8E7BE
:10677000612804D80A4B00221A700D4CB1E7084B6F
:1067800000221A700024ACE7FFF764FF02E0054B1B
:1067900000221A7010BD00BF333333333333E33F6D
:1067A000880E0020870E00200000C040000004403A
:1067B0000000A04210B5FFF783FF0E4B1B7803B912
:1067C00010BD1520FBF7DAF9C4B2022C08D0022C58
:1067D00003D0094B1B78022B09D0074B1C70EFE745
:1067E000054B1B78022BF2D000F012FAEFE700F015
:1067F00005FAF2E7850E0020860E002038B5024625
:106800000C46054D0021284618F024FB22460221A3
:10681000284618F01FFB38BD0004004070B50C4638
:10682000064600B981B10B4B9988186817F0BEFE77
:10683000094D32460421284618F00CFB2246062159
:10684000284618F007FB70BD024B9988186817F0AE
:10685000AFFEEDE7B00B00200004004008B5174B79
:106860001B78A3B1164B1B78FF2B02D00133144ABF
:106870001370134B1B78412B11D84FF480510846ED
:10688000FFF7CCFF0F49022001F0AEFA08BD00214E
:106890000846FFF7C3FF0A4B00221A70F6E70120F3
:1068A000FBF76CF90003084981FB0031C017C0EB0E
:1068B000611080B20146FFF7B1FFE7E7920E0020BA
:1068C000910E0020A02502081F85EB5170B506200F
:1068D000FBF754F906460520FBF750F90546234817
:1068E000FBF7E0FE0446AE420CDA854219DB864235
:1068F0002ADC1F4B1B68C31A092B27DD0A2B27DC58
:10690000002613E0AE4225DD85420ADC864223DB09
:10691000174B1B68C31A0A2B20DC092B20DD00262D
:1069200004E0FAF76DFF134B18600226FAF768FFD0
:10693000104B1D68451B0420FBF720F9012E11D0D8
:106940000B4B1C60304670BD0126EFE70326EDE7D8
:106950000426EBE70026E9E70126E7E70326E5E75B
:106960000426E3E78542EBD20326E9E70C0C00207E
:106970009C0E0020980E0020F8B50620FBF7FEF8CC
:1069800006460520FBF7FAF805460320FBF7F6F864
:1069900002034F4C84FB0230D217A2EB601202F5C7
:1069A00000670320FBF7EAF8030384FB0324DB17EB
:1069B000C3EB6413AE4220D1464B1B78012B47D06A
:1069C000444B1B78022B63D0434B1B885BB3013BCA
:1069D0009BB2414A138033BB00210846FFF70EFFEC
:1069E0003E4C21783120FBF7EBF822783C4B1A70B3
:1069F0003C49022001F0F8F915E003F50064FFF7C7
:106A000065FF0146364B1870324B1B78012B0BD0BB
:106A1000022B01D1022912D13120FBF7D1F800213C
:106A20000846FFF7EBFEF8BD0128F1D00321312025
:106A3000FBF7C6F8A1B2B8B2FFF7E0FEF3E7042116
:106A40003120FBF7BDF8B9B2A0B2FFF7D7FEEAE7F5
:106A50002549022001F0C8F903213120FBF7B0F8E5
:106A60004FF480510020FFF7C9FE0420FBF786F8A1
:106A70001E4B83FB00230344C017C0EB2310164BAF
:106A80001880164B01221A70124B00221A7097E7D9
:106A90001749022001F0A8F904213120FBF790F8F2
:106AA00000214FF48050FFF7A9FE0420FBF766F8A1
:106AB0000E4B83FB00230344C017C0EB2310064B8F
:106AC0001880064B02221A70024B00221A707BE7D4
:106AD0001F85EB518B0E0020960E00208A0E0020A1
